:020000040800F2
:100000000004002047130008950300089703000828
:100010009B0300089F030008A303000800000000E2
:10002000000000000000000000000000A70300081E
:10003000A903000800000000AB030008AD0300089E
:1000400067130008671300086713000867130008A8
:100050006713000867130008671300086713000898
:100060006713000867130008671300086713000888
:100070006713000867130008671300086713000878
:100080006713000867130008671300086713000868
:100090006713000867130008671300086713000858
:1000A0006713000867130008671300086713000848
:1000B0006713000867130008671300086713000838
:1000C0006713000867130008671300086713000828
:1000D0006713000867130008671300086713000818
:1000E0006713000867130008671300086713000808
:1000F00067130008671300086713000867130008F8
:1001000067130008671300086713000867130008E7
:1001100067130008671300086713000867130008D7
:1001200067130008671300086713000867130008C7
:1001300000F002F800F03CF80AA090E8000C8244BD
:100140008344AAF10107DA4501D100F031F8AFF29A
:10015000090EBAE80F0013F0010F18BFFB1A43F0A5
:1001600001031847E812000008130000103A24BFEA
:1001700078C878C1FAD8520724BF30C830C144BF0C
:1001800004680C607047000000230024002500264E
:10019000103A28BF78C1FBD8520728BF30C148BFEA
:1001A0000B6070471FB501F049F91FBD10B510BDB8
:1001B00001F010F91146FFF7F5FF00F03DF801F0EE
:1001C0002EF903B4FFF7F2FF03BC00F099F9000029
:1001D0006448806940F008006249886162480068AC
:1001E00020F0FF00604908600846006840F0880081
:1001F00008605C48806940F004005A4988615B48A7
:10020000006820F0FF00594908600846006840F087
:10021000330008605648006840F001005449086007
:100220000846006840F0020008605248006840F04C
:10023000010050490860704700BF01F056F84FF4C4
:10024000165000F00DF9482000F0BAF9FFF7C0FF92
:1002500086E03DE048480068D8B94FF000004749C3
:100260000860044612E04FF00000454908604FF076
:10027000140000F0BEF94FF001004249C1F88001BE
:100280004FF0140000F0B5F904F10104642C1FDAFA
:10029000E9E73D480068D8B94FF0010037490860E8
:1002A0004FF0000412E04FF00000354908604FF0B5
:1002B000140000F09EF94FF001003249C1F88001AE
:1002C0004FF0140000F095F904F10104642CEADB0E
:1002D0002E48008810F0200FBCD04FF001002749B5
:1002E00008602B480088C5B2284600F016F9A5F131
:1002F000300000EB80004FEA40164FF0000021492B
:10030000C1F880012AE000BF2048008810F0200FCB
:10031000FAD01F480088C5B2322D00D11FE04FF03F
:10032000000412E04FF00000154908604FF014007F
:1003300000F05FF94FF001001249C1F880014FF061
:10034000140000F056F904F10104B442EADB4FF066
:1003500000000B490860284600F0DFF8D3E700BF33
:1003600077E7000000100240000C01400008014047
:100370000C0C01400C080140008121428401214203
:1003800080012142000021420481214200380140C5
:1003900004380140704700BFFEE700BFFEE700BF22
:1003A000FEE700BFFEE770477047704770470000E8
:1003B00070B585B002464FF00000034600BF10E064
:1003C0004FF00A04B2FBF4F504FB152404F13004E9
:1003D0000DF8004000F10104E0B24FF00A04B2FB56
:1003E000F4F2002AECD10346104609E0A3EB000426
:1003F000A4F101041DF804400C5400F10104E0B222
:100400009842F3DB30B94FF03006044600F10105A5
:10041000E8B20E554FF000040C5405B070BD2DE944
:10042000F04105464FF000064FF00107284600F066
:10043000AEFF00F0FF0844460DE0A4F10100285C87
:10044000A0F1300000FB076607EB87004FEA40078A
:10045000A4F10100C4B2002CEFDC3046BDE8F0810D
:1004600010B588B004464FF0010144F2050000F0D9
:1004700056FC4FF40070ADF81C004FF003008DF8EF
:100480001E004FF018008DF81F0007A9484800F023
:100490005CF94FF48060ADF81C004FF048008DF817
:1004A0001F0007A9424800F050F903944FF00000E4
:1004B000ADF81000ADF81200ADF81400ADF818005A
:1004C0004FF00C00ADF816004FF00000ADF804003E
:1004D000ADF806004FF40070ADF808004FF00000D2
:1004E000ADF80A0001A9334800F044FD03A93148E2
:1004F00000F0D6FC01212F4800F05AFD08B010BDD5
:10050000014600BF7047C2B22B4B1A8000BF294A78
:10051000128812F0400FFAD070472749088000BFB8
:100520002449098811F0400FFAD0704709E010F80B
:10053000011B214A118000BF1E49098811F0400F9C
:10054000FAD001780029F2D1704700B50D20FFF7ED
:10055000E4FF0A20FFF7E1FF00BD00B502460AE014
:1005600010780A2802D1FFF7F0FF02E01078FFF7B9
:10057000D4FF02F1010210780028F1D100BD10B5BE
:1005800085B0044669462046FFF712FF6846FFF72C
:10059000E4FF05B010BD30B505460C462846FFF710
:1005A000DCFF2046FFF7EBFF04A0FFF7D6FF30BDCE
:1005B0000008014000380140043801400A000000F2
:1005C0004FF0E021096921F004014FF0E0221161B0
:1005D0004FEAE07200EB52724FEAE202244B1A70CB
:1005E000194609784FF47A7201FB02F1214A118011
:1005F000704701461E4A127801FB02F24FF0E023D9
:100600005A614FF000029A614FF001021A6100BF77
:100610004FF0E022106910F0010F02D010F4803F7B
:10062000F6D04FF000024FF0E0231A619A61704754
:100630000146104A128801FB02F24FF0E0235A6192
:100640004FF000029A614FF001021A6100BF4FF0B3
:10065000E022106910F0010F02D010F4803FF6D0B4
:100660004FF000024FF0E0231A619A6170470000DA
:10067000000000200200002010B50446D949A4EB78
:1006800001008C422FD009DCD748201810D0B0F5DB
:10069000806F16D0B0F5006F4AD11BE0B0F5806FC7
:1006A0002AD0B0F5006F30D0B0F5406F40D135E0C2
:1006B0000121042000F051FB0021042000F04DFB3B
:1006C00037E00121082000F048FB0021082000F05D
:1006D00044FB2EE00121102000F03FFB0021102000
:1006E00000F03BFB25E00121202000F036FB00213B
:1006F000202000F032FB1CE00121402000F02DFB07
:100700000021402000F029FB13E00121802000F0AF
:1007100024FB0021802000F020FB0AE001210802D8
:1007200000F01BFB00214FF4807000F016FB00E08E
:1007300000BF00BF10BD10B50121084600F00DFB41
:100740000021012000F009FB10BD2DE9F041024617
:100750004FF000052E46284603460446074691F80A
:1007600003C00CF00F0591F803C01CF0100F03D06C
:1007700091F802C04CEA0505B1F800C01CF0FF0F6B
:1007800035D014684FF000002EE04FF0010C0CFA49
:1007900000F3B1F800C00CEA03069E4222D14FEAF2
:1007A00080034FF00F0C0CFA03F724EA070405FA54
:1007B00003FC4CEA040491F803C0BCF1280F06D1F5
:1007C0004FF0010C0CFA00FCC2F814C00AE091F8DA
:1007D00003C0BCF1480F05D14FF0010C0CFA00FC2E
:1007E000C2F810C000F101000828CED31460B1F89F
:1007F00000C0BCF1FF0F38DD54684FF0000031E05D
:1008000000F1080C4FF0010808FA0CF3B1F800C031
:100810000CEA03069E4223D14FEA80034FF00F0CEF
:100820000CFA03F724EA070405FA03FC4CEA040473
:1008300091F803C0BCF1280F05D100F1080C08FAAB
:100840000CF8C2F8148091F803C0BCF1480F07D12E
:1008500000F1080C4FF0010808FA0CF8C2F81080FB
:1008600000F101000828CBD35460BDE8F0814FF6B9
:10087000FF7101804FF0020181704FF00401C170DF
:10088000704702464FF0000093680B4202D04FF0D1
:10089000010001E04FF0000070470146886880B217
:1008A000704702464FF00000D3680B4202D04FF071
:1008B000010001E04FF0000070470146C86880B2B7
:1008C000704701617047416170470AB1016100E002
:1008D00041617047C16070474FF4803242EA0102C3
:1008E00082618161826182698269704702464FF04C
:1008F00000003E4B18684FF6807300EA030040EAA0
:10090000021040EA0100394B186070473849C8614D
:100910007047F0B50A464FF000031C4619460D46D5
:10092000324E7168C0F3034583B200F44016B6F549
:10093000401F08D121F070612C4E766826F0706659
:100940002A4F7E6017E000F48016B6F5801F08D1AC
:100950004FF0030606FA05F421EA040141F0706144
:1009600009E04FEA50564FEA061603FA06F621EA66
:10097000060141F070613AB14FEA50564FEA06164F
:1009800003FA06F646EA0101184E7160F0BD30B573
:100990004FF000024FEA81734FEA13744FF00F03D8
:1009A00003FA04F2134B4FEAA10453F8243023EA6C
:1009B0000203104C4FEAA10544F8253023464FEAC4
:1009C000A10453F824304FEA81744FEA147400FAFA
:1009D00004F443EA0403074C4FEAA10544F8253028
:1009E00030BD00000014014000F8FEBF00000140CF
:1009F0000000204208000140F748006840F0010074
:100A0000F549086008464068F44900EA0100F249E7
:100A1000486008460068F24900EA0100EE490860B3
:100A20000846006820F4802008600846406820F4EA
:100A3000FE0048604FF0000088607047E649096892
:100A400021F48031E44A11601146096821F48021C3
:100A50001160B0F5803F03D0B0F5802F0ED106E0D5
:100A6000DD49096841F48031DB4A116007E0DA4969
:100A7000096841F4A021D84A116000E000BF00BF1E
:100A8000704710B501464FF00002134610464FEA7A
:100A90006112012A02D1D04C236806E0022A02D159
:100AA000CD4C236A01E0CC4C636A01F01F024FF089
:100AB000010404FA02F41C4202D04FF0010001E0EC
:100AC0004FF0000010BD70B54FF0000425462646DB
:100AD00000BF3120FFF7D5FF064604F1010416B927
:100AE000B4F5A06FF5D13120FFF7CBFF10B14FF077
:100AF000010501E04FF00005284670BD01464FF0AA
:100B00000000B54A106820F0F80040EAC10010600B
:100B10007047B4490860704702464FF00000AE4B82
:100B2000586820F47C1042EA010343EA0000AA4B13
:100B300058607047AB490866704701464FF00000A7
:100B4000A54A506820F0030040EA01005060704759
:100B5000A148406800F00C00704701464FF00000CB
:100B60009D4A506820F0F00040EA01005060704754
:100B700001464FF00000984A506820F4E06040EAD7
:100B800001005060704701464FF00000924A5068E3
:100B900020F4605040EAC1005060704731B18E4A85
:100BA000527A42EA00028C4B5A7208E08A4A527A20
:100BB0006FEA0003DBB202EA0302874B5A72704706
:100BC00089490860704701464FF00000824A50682A
:100BD00020F4404040EA0100506070474FF00001AF
:100BE000824A11707C4A82F82010012802D0042821
:100BF0000AD104E04FF001017C4A117005E04FF08A
:100C000005017A4A117000E000BF00BF70477849C3
:100C1000086070477049096A41EA00016E4A116232
:100C2000704774490860704730B54FF000010A46BC
:100C30000C460B46684D6D6805F00C0121B1042986
:100C400005D0082927D105E06B4D056026E06A4DE7
:100C5000056023E0604D6D6805F470124FF00205E9
:100C600005EB92425C4D6D6805F4803424B9634D08
:100C700002FB05F505600DE0574D6D6815F4003F6A
:100C800004D05E4D02FB05F5056003E05A4D02FB02
:100C900005F5056002E0584D056000BF00BF4E4DF0
:100CA0006D6805F0F0014FEA1111554D6B5C056858
:100CB00025FA03F54560484D6D6805F4E0614FEA9B
:100CC00011214F4D6B5C456825FA03F58560424D57
:100CD0006D6805F460514FEAD121494D6B5C456860
:100CE00025FA03F5C5603C4D6D6805F440414FEAB7
:100CF0009131444D6B5CC568B5FBF3F5056130BDC2
:100D000031B1354A526942EA0002334B5A6105E07B
:100D1000314A526922EA00022F4B5A61704731B1C1
:100D20002D4A926942EA00022B4B9A6105E02A4A59
:100D3000926922EA0002284B9A61704731B1264A33
:100D4000D26942EA0002244BDA6105E0224AD26904
:100D500022EA0002204BDA61704731B11E4AD268A4
:100D600042EA00021C4BDA6005E01B4AD26822EA24
:100D70000002194BDA60704731B1174A126942EA32
:100D80000002154B1A6105E0134A126922EA0002BB
:100D9000114B1A6170471C49086070471149C864BB
:100DA00070470D49C87170470B48406A40F0807029
:100DB00009494862704701464FF00000064A9268B0
:100DC0000A4202D04FF0010001E04FF000007047EE
:100DD0000149887270470000001002400000FFF8CF
:100DE000FFFFF6FE00004242D800424220100240BF
:100DF000800442423C04424200127A0000093D0055
:100E000004000020140000204004424210B50446B3
:100E1000FD49A4EB01008C422BD006DCFB482018D6
:100E200013D0B0F5806F38D119E0B0F5806F2AD0BB
:100E3000B0F56C4F31D101218803FFF78EFF0021FF
:100E40004FF48040FFF789FF28E001214804FFF7B5
:100E500093FF00214FF40030FFF78EFF1EE00121C9
:100E60008804FFF789FF00214FF48020FFF784FFFB
:100E700014E00121C804FFF77FFF00214FF4002098
:100E8000FFF77AFF0AE001210805FFF775FF00214F
:100E90004FF48010FFF770FF00E000BF00BF10BDEF
:100EA0002DE9F04786B005460E464FF00004A246F5
:100EB00000BF00BF27462F462C8A4CF6FF7004EA7D
:100EC0000004F08840EA04042C82AC894EF6F3104A
:100ED00004EA0004B088318940EA0100718940EADF
:100EE000010040EA0404AC81AC8A4FF6FF4004EAFA
:100EF0000004B08940EA0404AC8201A8FFF794FE24
:100F0000C348874202D1DDF810A001E0DDF80CA053
:100F10000AEBCA0000EB0A1031684FEA8101B0FB0E
:100F2000F1F84FF06400B8FBF0F04FEA00144FEA1C
:100F300014104FF0640101FB10894FF0320000EBF8
:100F40000910B0FBF1F000F00F0040EA04042C811E
:100F500006B0BDE8F0874FF4165101604FF0000174
:100F60008180C18001814FF00C0141814FF000016F
:100F70008181704710B502464FF00000108A4FF291
:100F8000FF0300EA03000B884C8843EA04038C88C3
:100F900043EA0403CC8843EA040343EA00001082D6
:100FA00010BD4FF00001018041808180C1807047F9
:100FB00021B1828942F40052828105E082894DF696
:100FC000FF7302EA030282817047F0B503464FF0D7
:100FD00000042646254620461846C1F3421401F077
:100FE0001F064FF0010707FA06F5012C02D100F1A8
:100FF0000C0006E0022C02D100F1100001E000F12B
:10100000140022B1076847EA0507076003E0076894
:1010100027EA05070760F0BD10B522B1838A43EACD
:101020000103838206E0838A6FEA0104A4B203EA23
:101030000403838210BD028A4FF6F07302EA0302B2
:101040000282028A42EA01020282704782894FF2DA
:10105000FF7302EA03028281828942EA01028281ED
:10106000704721B1828942F00202828105E08289C3
:101070004FF6FD7302EA030282817047028A4FF63F
:10108000DF7302EA03020282028A42EA010202825A
:10109000704721B1028A42F48042028205E0028A4E
:1010A0004BF6FF7302EA030202827047C1F30802A3
:1010B0008280704701468888C0F3080070478189A4
:1010C00041F0010181817047028BD2B20283028B11
:1010D00042EA012202837047028B02F47F420283BC
:1010E000028B42EA01020283704721B1828A42F0F8
:1010F0002002828205E0828A4FF6DF7302EA030251
:101100008282704721B1828A42F01002828205E019
:10111000828A4FF6EF7302EA03028282704721B19E
:10112000828A42F00802828205E0828A4FF6F773D3
:1011300002EA030282827047828A4FF6FB7302EA58
:1011400003028282828A42EA01028282704721B1CE
:10115000828A42F00202828205E0828A4FF6FD73A3
:1011600002EA03028282704702464FF000001388B1
:101170000B4202D04FF0010001E04FF00000704739
:101180006FEA01020280704770B502460B464FF0CD
:10119000000421460D460846C3F3421503F01F0123
:1011A0004FF0010606FA01F1012D03D1968906EAF6
:1011B000010108E0022D03D1168A06EA010102E0CE
:1011C000968A06EA01014FEA23244FF0010606FA47
:1011D00004F4168806EA040419B114B14FF00100B2
:1011E00001E04FF0000070BD10B54FF00002134653
:1011F0004FEA21224FF0010404FA02F4A3B26FEA8D
:101200000304048010BD0000004C004000BCFFBF80
:10121000003801404FF000010846464A126842F487
:101220008032444B1A6000BF424A126802F4003018
:1012300001F1010110B9B1F5A06FF5D13D4A126875
:1012400012F4003F02D04FF0010001E04FF0000027
:10125000012843D1384A126842F01002364B1A6016
:101260001A46126822F003021A601A46126842F007
:1012700002021A602F4A52682E4B5A601A46526870
:101280005A601A46526842F480625A601A4652689E
:1012900022F47C125A601A46526842F4E8125A60EC
:1012A0001A46126842F080721A6000BF214A126822
:1012B00012F0007FFAD01F4A526822F003021D4B41
:1012C0005A601A46526842F002025A6000BF194A38
:1012D000526802F00C02082AF9D101E000BFFEE7D3
:1012E000704710B5FFF796FF10BD10B511480068A4
:1012F00040F001000F490860084640680F4900EAC5
:1013000001000C494860084600680D4900EA0100E8
:10131000084908600846006820F4802008600846F4
:10132000406820F4FE0048604FF000008860FFF73E
:10133000D8FF10BD00100240002002400000FFF85E
:10134000FFFFF6FE70470B4880470B4981F3088882
:101350000A480047FEE7FEE7FEE7FEE7FEE7FEE796
:10136000FEE7FEE7FEE7FEE705480649044A064BAE
:101370007047000045130008780200203101000882
:10138000780000207802002078000020704710B517
:10139000431C02E010F8011B71B18107FAD14FF034
:1013A000013202C88C1A8C4314EAC211F9D0C01A57
:1013B0000A0603D0C01E10BDC01A10BD0A0401D019
:1013C000801E10BD0902FCD0401E10BD7047704742
:1013D00070477047754600F029F8AE46050069462B
:1013E000534620F00700854618B020B5FFF7BCFF34
:1013F000BDE820404FF000064FF000074FF0000816
:101400004FF0000B21F00701AC46ACE8C009ACE896
:10141000C009ACE8C009ACE8C0098D467047044675
:10142000AFF300802046FEF7CCFE00000048704776
:1014300018000020004870471C00002010B5FFF77E
:10144000F9FF4FF00001016010BD00006C140008AE
:1014500000000020180000006C010008841400083F
:101460001800002060020000880100080000000051
:10147000000000000102030401020304060708093A
:041480000204060854
:0400000508000131BD
:00000001FF
